{
  "_format": "hh-sol-artifact-1",
  "contractName": "Liquidity",
  "sourceName": "contracts/Liquidity.sol",
  "abi": [
    {
      "inputs": [
        {
          "internalType": "contract INonfungiblePositionManager",
          "name": "_nonfungiblePositionManager",
          "type": "address"
        }
      ],
      "stateMutability": "nonpayable",
      "type": "constructor"
    },
    {
      "inputs": [
        {
          "internalType": "uint256",
          "name": "_tokenId",
          "type": "uint256"
        }
      ],
      "name": "collectAllFees",
      "outputs": [
        {
          "internalType": "uint256",
          "name": "amount0",
          "type": "uint256"
        },
        {
          "internalType": "uint256",
          "name": "amount1",
          "type": "uint256"
        }
      ],
      "stateMutability": "nonpayable",
      "type": "function"
    },
    {
      "inputs": [
        {
          "internalType": "uint256",
          "name": "_tokenId",
          "type": "uint256"
        }
      ],
      "name": "decreaseLiquidityInHalf",
      "outputs": [
        {
          "internalType": "uint256",
          "name": "amount0",
          "type": "uint256"
        },
        {
          "internalType": "uint256",
          "name": "amount1",
          "type": "uint256"
        }
      ],
      "stateMutability": "nonpayable",
      "type": "function"
    },
    {
      "inputs": [
        {
          "internalType": "uint256",
          "name": "",
          "type": "uint256"
        }
      ],
      "name": "deposits",
      "outputs": [
        {
          "internalType": "address",
          "name": "owner",
          "type": "address"
        },
        {
          "internalType": "uint128",
          "name": "liquidity",
          "type": "uint128"
        },
        {
          "internalType": "address",
          "name": "token0",
          "type": "address"
        },
        {
          "internalType": "address",
          "name": "token1",
          "type": "address"
        }
      ],
      "stateMutability": "view",
      "type": "function"
    },
    {
      "inputs": [
        {
          "internalType": "uint256",
          "name": "_tokenId",
          "type": "uint256"
        }
      ],
      "name": "getLiquidity",
      "outputs": [
        {
          "internalType": "uint128",
          "name": "",
          "type": "uint128"
        }
      ],
      "stateMutability": "view",
      "type": "function"
    },
    {
      "inputs": [
        {
          "internalType": "uint256",
          "name": "_tokenId",
          "type": "uint256"
        },
        {
          "internalType": "address",
          "name": "tokenX",
          "type": "address"
        },
        {
          "internalType": "uint256",
          "name": "amountAdd0",
          "type": "uint256"
        },
        {
          "internalType": "address",
          "name": "tokenY",
          "type": "address"
        },
        {
          "internalType": "uint256",
          "name": "amountAdd1",
          "type": "uint256"
        }
      ],
      "name": "increaseLiquidityCurrentRange",
      "outputs": [
        {
          "internalType": "uint128",
          "name": "liquidity",
          "type": "uint128"
        },
        {
          "internalType": "uint256",
          "name": "amount0",
          "type": "uint256"
        },
        {
          "internalType": "uint256",
          "name": "amount1",
          "type": "uint256"
        }
      ],
      "stateMutability": "nonpayable",
      "type": "function"
    },
    {
      "inputs": [
        {
          "internalType": "address",
          "name": "tokenX",
          "type": "address"
        },
        {
          "internalType": "uint256",
          "name": "positionX",
          "type": "uint256"
        },
        {
          "internalType": "address",
          "name": "tokenY",
          "type": "address"
        },
        {
          "internalType": "uint256",
          "name": "positionY",
          "type": "uint256"
        }
      ],
      "name": "mintNewPosition",
      "outputs": [
        {
          "internalType": "uint256",
          "name": "_tokenId",
          "type": "uint256"
        },
        {
          "internalType": "uint128",
          "name": "liquidity",
          "type": "uint128"
        },
        {
          "internalType": "uint256",
          "name": "amount0",
          "type": "uint256"
        },
        {
          "internalType": "uint256",
          "name": "amount1",
          "type": "uint256"
        }
      ],
      "stateMutability": "nonpayable",
      "type": "function"
    },
    {
      "inputs": [],
      "name": "nonfungiblePositionManager",
      "outputs": [
        {
          "internalType": "contract INonfungiblePositionManager",
          "name": "",
          "type": "address"
        }
      ],
      "stateMutability": "view",
      "type": "function"
    },
    {
      "inputs": [
        {
          "internalType": "address",
          "name": "operator",
          "type": "address"
        },
        {
          "internalType": "address",
          "name": "",
          "type": "address"
        },
        {
          "internalType": "uint256",
          "name": "_tokenId",
          "type": "uint256"
        },
        {
          "internalType": "bytes",
          "name": "",
          "type": "bytes"
        }
      ],
      "name": "onERC721Received",
      "outputs": [
        {
          "internalType": "bytes4",
          "name": "",
          "type": "bytes4"
        }
      ],
      "stateMutability": "nonpayable",
      "type": "function"
    },
    {
      "inputs": [],
      "name": "poolFee",
      "outputs": [
        {
          "internalType": "uint24",
          "name": "",
          "type": "uint24"
        }
      ],
      "stateMutability": "view",
      "type": "function"
    },
    {
      "inputs": [
        {
          "internalType": "uint256",
          "name": "_tokenId",
          "type": "uint256"
        }
      ],
      "name": "retrieveNFT",
      "outputs": [],
      "stateMutability": "nonpayable",
      "type": "function"
    }
  ],
  "bytecode": "0x60a06040526000805462ffffff1916610bb817905534801561002057600080fd5b50604051611ac5380380611ac583398101604081905261003f91610054565b60601b6001600160601b031916608052610082565b600060208284031215610065578081fd5b81516001600160a01b038116811461007b578182fd5b9392505050565b60805160601c6119e56100e060003980610261528061038752806103b252806104695280610512528061055652806105ea5280610723528061074e52806107d052806109965280610a9f5280610b925280610bbb52506119e56000f3fe608060405234801561001057600080fd5b50600436106100be5760003560e01c80637e14be2a11610076578063951583c31161005b578063951583c31461018f578063b02c43d0146101af578063b44a2722146101d2576100be565b80637e14be2a1461015a5780638187b4c51461017c576100be565b8063150b7a02116100a7578063150b7a02146100f65780633ca604e61461011657806346ce96dd14610139576100be565b8063089fe6aa146100c35780630a1d7c5f146100e1575b600080fd5b6100cb6101e7565b6040516100d8919061194c565b60405180910390f35b6100f46100ef36600461150c565b6101f2565b005b6101096101043660046113f7565b610344565b6040516100d89190611727565b610129610124366004611491565b61037b565b6040516100d89493929190611965565b61014c61014736600461150c565b610598565b6040516100d8929190611989565b61016d610168366004611524565b610700565b6040516100d89392919061192b565b61014c61018a36600461150c565b610904565b6101a261019d36600461150c565b610a9a565b6040516100d89190611917565b6101c26101bd36600461150c565b610b4f565b6040516100d894939291906116f3565b6101da610b90565b6040516100d89190611754565b60005462ffffff1681565b6000818152600160205260409020546001600160a01b031633146102315760405162461bcd60e51b815260040161022890611768565b60405180910390fd5b6040517f42842e0e0000000000000000000000000000000000000000000000000000000081526001600160a01b037f000000000000000000000000000000000000000000000000000000000000000016906342842e0e9061029a903090339086906004016116cf565b600060405180830381600087803b1580156102b457600080fd5b505af11580156102c8573d6000803e3d6000fd5b50505060009182525060016020819052604090912080547fffffffffffffffffffffffff0000000000000000000000000000000000000000908116825591810180547fffffffffffffffffffffffffffffffff000000000000000000000000000000001690556002810180548316905560030180549091169055565b60006103508685610bb4565b507f150b7a020000000000000000000000000000000000000000000000000000000095945050505050565b6000806000806103ac887f000000000000000000000000000000000000000000000000000000000000000089610e02565b6103d7867f000000000000000000000000000000000000000000000000000000000000000087610e02565b60408051610160810182526001600160a01b03808b16825288811660208301526000805462ffffff1683850152620d89e7196060840152620d89e8608084015260a083018b905260c0830189905260e08301819052610100830152306101208301524261014083015291517f8831645600000000000000000000000000000000000000000000000000000000815290917f0000000000000000000000000000000000000000000000000000000000000000169063883164569061049e908490600401611869565b608060405180830381600087803b1580156104b857600080fd5b505af11580156104cc573d6000803e3d6000fd5b505050506040513d601f19601f820116820180604052508101906104f09190611575565b929750909550935091506105043386610bb4565b8783101561054857610538897f00000000000000000000000000000000000000000000000000000000000000006000610e02565b8288036105468a3383610f7d565b505b8582101561058c5761057c877f00000000000000000000000000000000000000000000000000000000000000006000610e02565b81860361058a883383610f7d565b505b50945094509450949050565b604080516080810182528281523360208201526001600160801b03818301819052606082015290517ffc6f786500000000000000000000000000000000000000000000000000000000815260009182917f00000000000000000000000000000000000000000000000000000000000000006001600160a01b03169063fc6f78659061062790849060040161179f565b6040805180830381600087803b15801561064057600080fd5b505af1158015610654573d6000803e3d6000fd5b505050506040513d601f19601f8201168201806040525081019061067891906115b0565b60408051808201909152600d81527f666565202d20616d6f756e743000000000000000000000000000000000000000602082015291945092506106bb90846110f8565b6106fa6040518060400160405280600d81526020017f666565202d20616d6f756e743100000000000000000000000000000000000000815250836110f8565b50915091565b6000806000610711873330896111c3565b61071d853330876111c3565b610748877f000000000000000000000000000000000000000000000000000000000000000088610e02565b610773857f000000000000000000000000000000000000000000000000000000000000000086610e02565b6040805160c0810182528981526020810188905280820186905260006060820181905260808201524260a082015290517f219f5d170000000000000000000000000000000000000000000000000000000081526001600160a01b037f0000000000000000000000000000000000000000000000000000000000000000169063219f5d1790610805908490600401611825565b606060405180830381600087803b15801561081f57600080fd5b505af1158015610833573d6000803e3d6000fd5b505050506040513d601f19601f8201168201806040525081019061085791906114d8565b60408051808201909152600981527f6c69717569646974790000000000000000000000000000000000000000000000602082015292965090945092506108a6906001600160801b0386166110f8565b6108cf604051806040016040528060078152602001660616d6f756e74360cc1b815250846110f8565b6108f860405180604001604052806007815260200166616d6f756e743160c81b815250836110f8565b50955095509592505050565b60008181526001602052604081205481906001600160a01b0316331461093c5760405162461bcd60e51b815260040161022890611768565b6000838152600160208190526040822001546001600160801b03169060028204905060006040518060a00160405280878152602001836001600160801b0316815260200160008152602001600081526020014281525090507f00000000000000000000000000000000000000000000000000000000000000006001600160a01b0316630c49ccbe826040518263ffffffff1660e01b81526004016109e091906117e2565b6040805180830381600087803b1580156109f957600080fd5b505af1158015610a0d573d6000803e3d6000fd5b505050506040513d601f19601f82011682018060405250810190610a3191906115b0565b6040805180820190915260078152660616d6f756e74360cc1b60208201529196509450610a5e90866110f8565b610a8760405180604001604052806007815260200166616d6f756e743160c81b815250856110f8565b610a9286868661134e565b505050915091565b6000807f00000000000000000000000000000000000000000000000000000000000000006001600160a01b03166399fbab88846040518263ffffffff1660e01b8152600401610ae9919061195c565b6101806040518083038186803b158015610b0257600080fd5b505afa158015610b16573d6000803e3d6000fd5b505050506040513d601f19601f82011682018060405250810190610b3a91906115d3565b50929b5050505050505050505050505b919050565b600160208190526000918252604090912080549181015460028201546003909201546001600160a01b03938416936001600160801b03909216928216911684565b7f000000000000000000000000000000000000000000000000000000000000000081565b60008060007f00000000000000000000000000000000000000000000000000000000000000006001600160a01b03166399fbab88856040518263ffffffff1660e01b8152600401610c05919061195c565b6101806040518083038186803b158015610c1e57600080fd5b505afa158015610c32573d6000803e3d6000fd5b505050506040513d601f19601f82011682018060405250810190610c5691906115d3565b5050505097505050509450945050506040518060800160405280866001600160a01b03168152602001826001600160801b03168152602001846001600160a01b03168152602001836001600160a01b03168152506001600086815260200190815260200160002060008201518160000160006101000a8154816001600160a01b0302191690836001600160a01b0316021790555060208201518160010160006101000a8154816001600160801b0302191690836001600160801b0316021790555060408201518160020160006101000a8154816001600160a01b0302191690836001600160a01b0316021790555060608201518160030160006101000a8154816001600160a01b0302191690836001600160a01b03160217905550905050610db36040518060400160405280600781526020017f546f6b656e496400000000000000000000000000000000000000000000000000815250856110f8565b610dfb6040518060400160405280600981526020017f4c69717569646974790000000000000000000000000000000000000000000000815250826001600160801b03166110f8565b5050505050565b604080516001600160a01b038481166024830152604480830185905283518084039091018152606490920183526020820180516001600160e01b03167f095ea7b3000000000000000000000000000000000000000000000000000000001781529251825160009485949389169392918291908083835b60208310610e975780518252601f199092019160209182019101610e78565b6001836020036101000a0380198251168184511680821785525050505050509050019150506000604051808303816000865af19150503d8060008114610ef9576040519150601f19603f3d011682016040523d82523d6000602084013e610efe565b606091505b5091509150818015610f2c575080511580610f2c5750808060200190516020811015610f2957600080fd5b50515b610dfb576040805162461bcd60e51b815260206004820152600260248201527f5341000000000000000000000000000000000000000000000000000000000000604482015290519081900360640190fd5b604080516001600160a01b038481166024830152604480830185905283518084039091018152606490920183526020820180516001600160e01b03167fa9059cbb000000000000000000000000000000000000000000000000000000001781529251825160009485949389169392918291908083835b602083106110125780518252601f199092019160209182019101610ff3565b6001836020036101000a0380198251168184511680821785525050505050509050019150506000604051808303816000865af19150503d8060008114611074576040519150601f19603f3d011682016040523d82523d6000602084013e611079565b606091505b50915091508180156110a75750805115806110a757508080602001905160208110156110a457600080fd5b50515b610dfb576040805162461bcd60e51b815260206004820152600260248201527f5354000000000000000000000000000000000000000000000000000000000000604482015290519081900360640190fd5b6111bf82826040516024018080602001838152602001828103825284818151815260200191508051906020019080838360005b8381101561114357818101518382015260200161112b565b50505050905090810190601f1680156111705780820380516001836020036101000a031916815260200191505b5060408051601f198184030181529190526020810180516001600160e01b03167fb60e72cc00000000000000000000000000000000000000000000000000000000179052935061138f92505050565b5050565b604080516001600160a01b0385811660248301528481166044830152606480830185905283518084039091018152608490920183526020820180516001600160e01b03167f23b872dd00000000000000000000000000000000000000000000000000000000178152925182516000948594938a169392918291908083835b602083106112605780518252601f199092019160209182019101611241565b6001836020036101000a0380198251168184511680821785525050505050509050019150506000604051808303816000865af19150503d80600081146112c2576040519150601f19603f3d011682016040523d82523d6000602084013e6112c7565b606091505b50915091508180156112f55750805115806112f557508080602001905160208110156112f257600080fd5b50515b611346576040805162461bcd60e51b815260206004820152600360248201527f5354460000000000000000000000000000000000000000000000000000000000604482015290519081900360640190fd5b505050505050565b6000838152600160205260409020805460028201546003909201546001600160a01b039182169282169116611384828487610f7d565b611346818486610f7d565b80516a636f6e736f6c652e6c6f67602083016000808483855afa5050505050565b8051610b4a81611997565b8051600281900b8114610b4a57600080fd5b80516001600160801b0381168114610b4a57600080fd5b805162ffffff81168114610b4a57600080fd5b60008060008060006080868803121561140e578081fd5b853561141981611997565b9450602086013561142981611997565b935060408601359250606086013567ffffffffffffffff8082111561144c578283fd5b818801915088601f83011261145f578283fd5b81358181111561146d578384fd5b89602082850101111561147e578384fd5b9699959850939650602001949392505050565b600080600080608085870312156114a6578384fd5b84356114b181611997565b93506020850135925060408501356114c881611997565b9396929550929360600135925050565b6000806000606084860312156114ec578283fd5b6114f5846113cd565b925060208401519150604084015190509250925092565b60006020828403121561151d578081fd5b5035919050565b600080600080600060a0868803121561153b578081fd5b85359450602086013561154d81611997565b935060408601359250606086013561156481611997565b949793965091946080013592915050565b6000806000806080858703121561158a578384fd5b8451935061159a602086016113cd565b6040860151606090960151949790965092505050565b600080604083850312156115c2578182fd5b505080516020909101519092909150565b6000806000806000806000806000806000806101808d8f0312156115f5578687fd5b8c516bffffffffffffffffffffffff81168114611610578788fd5b9b5061161e60208e016113b0565b9a5061162c60408e016113b0565b995061163a60608e016113b0565b985061164860808e016113e4565b975061165660a08e016113bb565b965061166460c08e016113bb565b955061167260e08e016113cd565b94506101008d015193506101208d015192506116916101408e016113cd565b91506116a06101608e016113cd565b90509295989b509295989b509295989b565b6001600160a01b03169052565b60020b9052565b62ffffff169052565b6001600160a01b039384168152919092166020820152604081019190915260600190565b6001600160a01b0394851681526001600160801b039390931660208401529083166040830152909116606082015260800190565b7fffffffff0000000000000000000000000000000000000000000000000000000091909116815260200190565b6001600160a01b0391909116815260200190565b6020808252600d908201527f4e6f7420746865206f776e657200000000000000000000000000000000000000604082015260600190565b815181526020808301516001600160a01b0316908201526040808301516001600160801b0390811691830191909152606092830151169181019190915260800190565b600060a082019050825182526001600160801b03602084015116602083015260408301516040830152606083015160608301526080830151608083015292915050565b600060c082019050825182526020830151602083015260408301516040830152606083015160608301526080830151608083015260a083015160a083015292915050565b60006101608201905061187d8284516116b2565b602083015161188f60208401826116b2565b5060408301516118a260408401826116c6565b5060608301516118b560608401826116bf565b5060808301516118c860808401826116bf565b5060a083015160a083015260c083015160c083015260e083015160e083015261010080840151818401525061012080840151611906828501826116b2565b505061014092830151919092015290565b6001600160801b0391909116815260200190565b6001600160801b039390931683526020830191909152604082015260600190565b62ffffff91909116815260200190565b90815260200190565b9384526001600160801b039290921660208401526040830152606082015260800190565b918252602082015260400190565b6001600160a01b03811681146119ac57600080fd5b5056fea264697066735822122063b792ba131e84776115cb3877e1a8aeba9aa6f68e565995250d79f19a22aac464736f6c63430007060033",
  "linkReferences": {},
  "deployedLinkReferences": {}
}