{
  "_format": "hh-sol-artifact-1",
  "contractName": "SingleSwapToken",
  "sourceName": "contracts/SingleSwapToken.sol",
  "abi": [
    {
      "inputs": [],
      "name": "poolFee",
      "outputs": [
        {
          "internalType": "uint24",
          "name": "",
          "type": "uint24"
        }
      ],
      "stateMutability": "view",
      "type": "function"
    },
    {
      "inputs": [
        {
          "internalType": "uint24",
          "name": "_fee",
          "type": "uint24"
        }
      ],
      "name": "setPoolFee",
      "outputs": [],
      "stateMutability": "nonpayable",
      "type": "function"
    },
    {
      "inputs": [
        {
          "internalType": "address",
          "name": "tokenX",
          "type": "address"
        },
        {
          "internalType": "address",
          "name": "tokenY",
          "type": "address"
        },
        {
          "internalType": "uint256",
          "name": "amountIn",
          "type": "uint256"
        }
      ],
      "name": "swapExactInputSingle",
      "outputs": [
        {
          "internalType": "uint256",
          "name": "amountOut",
          "type": "uint256"
        }
      ],
      "stateMutability": "nonpayable",
      "type": "function"
    },
    {
      "inputs": [],
      "name": "swapRouter",
      "outputs": [
        {
          "internalType": "contract ISwapRouter",
          "name": "",
          "type": "address"
        }
      ],
      "stateMutability": "view",
      "type": "function"
    }
  ],
  "bytecode": "0x60a06040527fe592427a0aece92de3edee1f18e0157c058615640000000000000000000000006080526000805462ffffff1916610bb817905534801561004457600080fd5b5060805160601c6106e261006b6000398060e0528061011652806101b052506106e26000f3fe608060405234801561001057600080fd5b506004361061004c5760003560e01c8063089fe6aa1461005157806373dd250c1461006f578063c31c9c0714610084578063ceb9201214610099575b600080fd5b6100596100b9565b6040516100669190610693565b60405180910390f35b61008261007d3660046105ce565b6100c4565b005b61008c6100de565b6040516100669190610610565b6100ac6100a7366004610593565b610102565b60405161006691906106a3565b60005462ffffff1681565b6000805462ffffff191662ffffff92909216919091179055565b7f000000000000000000000000000000000000000000000000000000000000000081565b600061011084333085610240565b61013b847f0000000000000000000000000000000000000000000000000000000000000000846103e0565b60408051610100810182526001600160a01b03808716825285811660208301526000805462ffffff168385015233606084015242608084015260a0830186905260c0830181905260e083015291517f414bf38900000000000000000000000000000000000000000000000000000000815290917f0000000000000000000000000000000000000000000000000000000000000000169063414bf389906101e5908490600401610624565b602060405180830381600087803b1580156101ff57600080fd5b505af1158015610213573d6000803e3d6000fd5b505050506040513d601f19601f8201168201806040525081019061023791906105f8565b95945050505050565b604080516001600160a01b0385811660248301528481166044830152606480830185905283518084039091018152608490920183526020820180517bffffffffffffffffffffffffffffffffffffffffffffffffffffffff167f23b872dd00000000000000000000000000000000000000000000000000000000178152925182516000948594938a169392918291908083835b602083106102f25780518252601f1990920191602091820191016102d3565b6001836020036101000a0380198251168184511680821785525050505050509050019150506000604051808303816000865af19150503d8060008114610354576040519150601f19603f3d011682016040523d82523d6000602084013e610359565b606091505b5091509150818015610387575080511580610387575080806020019051602081101561038457600080fd5b50515b6103d8576040805162461bcd60e51b815260206004820152600360248201527f5354460000000000000000000000000000000000000000000000000000000000604482015290519081900360640190fd5b505050505050565b604080516001600160a01b038481166024830152604480830185905283518084039091018152606490920183526020820180517bffffffffffffffffffffffffffffffffffffffffffffffffffffffff167f095ea7b3000000000000000000000000000000000000000000000000000000001781529251825160009485949389169392918291908083835b6020831061048a5780518252601f19909201916020918201910161046b565b6001836020036101000a0380198251168184511680821785525050505050509050019150506000604051808303816000865af19150503d80600081146104ec576040519150601f19603f3d011682016040523d82523d6000602084013e6104f1565b606091505b509150915081801561051f57508051158061051f575080806020019051602081101561051c57600080fd5b50515b610570576040805162461bcd60e51b815260206004820152600260248201527f5341000000000000000000000000000000000000000000000000000000000000604482015290519081900360640190fd5b5050505050565b80356001600160a01b038116811461058e57600080fd5b919050565b6000806000606084860312156105a7578283fd5b6105b084610577565b92506105be60208501610577565b9150604084013590509250925092565b6000602082840312156105df578081fd5b813562ffffff811681146105f1578182fd5b9392505050565b600060208284031215610609578081fd5b5051919050565b6001600160a01b0391909116815260200190565b6000610100820190506001600160a01b0380845116835280602085015116602084015262ffffff60408501511660408401528060608501511660608401526080840151608084015260a084015160a084015260c084015160c08401528060e08501511660e08401525092915050565b62ffffff91909116815260200190565b9081526020019056fea264697066735822122037346a108e94803b08ccc6eef98343f9335c02162f3ae6a769a3e389d40ef9bd64736f6c63430007060033",
  "linkReferences": {},
  "deployedLinkReferences": {}
}