{
  "_format": "hh-sol-artifact-1",
  "contractName": "SwapMultiHop",
  "sourceName": "contracts/SwapMultiHop.sol",
  "abi": [
    {
      "inputs": [
        {
          "internalType": "address",
          "name": "tokenX",
          "type": "address"
        },
        {
          "internalType": "uint24",
          "name": "poolFeeXY",
          "type": "uint24"
        },
        {
          "internalType": "address",
          "name": "tokenY",
          "type": "address"
        },
        {
          "internalType": "uint24",
          "name": "poolFeeYZ",
          "type": "uint24"
        },
        {
          "internalType": "address",
          "name": "tokenZ",
          "type": "address"
        },
        {
          "internalType": "uint256",
          "name": "amountIn",
          "type": "uint256"
        }
      ],
      "name": "swapExactInputMultihop",
      "outputs": [
        {
          "internalType": "uint256",
          "name": "amountOut",
          "type": "uint256"
        }
      ],
      "stateMutability": "nonpayable",
      "type": "function"
    },
    {
      "inputs": [],
      "name": "swapRouter",
      "outputs": [
        {
          "internalType": "contract ISwapRouter",
          "name": "",
          "type": "address"
        }
      ],
      "stateMutability": "view",
      "type": "function"
    }
  ],
  "bytecode": "0x60a060405273e592427a0aece92de3edee1f18e0157c0586156473ffffffffffffffffffffffffffffffffffffffff1660809073ffffffffffffffffffffffffffffffffffffffff1681525034801561005757600080fd5b50608051610b5561008060003960008181609d0152818161012d01526101d60152610b556000f3fe608060405234801561001057600080fd5b50600436106100365760003560e01c80635e329aad1461003b578063c31c9c071461006b575b600080fd5b61005560048036038101906100509190610579565b610089565b6040516100629190610615565b60405180910390f35b6100736101d4565b604051610080919061068f565b60405180910390f35b6000610097873330856101f8565b6100c2877f000000000000000000000000000000000000000000000000000000000000000084610350565b60006040518060a0016040528089898989896040516020016100e8959493929190610728565b60405160208183030381529060405281526020013373ffffffffffffffffffffffffffffffffffffffff168152602001428152602001848152602001600081525090507f000000000000000000000000000000000000000000000000000000000000000073ffffffffffffffffffffffffffffffffffffffff1663c04b8d59826040518263ffffffff1660e01b815260040161018491906108ab565b6020604051808303816000875af11580156101a3573d6000803e3d6000fd5b505050506040513d601f19601f820116820180604052508101906101c791906108e2565b9150509695505050505050565b7f000000000000000000000000000000000000000000000000000000000000000081565b6000808573ffffffffffffffffffffffffffffffffffffffff166323b872dd60e01b86868660405160240161022f9392919061091e565b604051602081830303815290604052907bffffffffffffffffffffffffffffffffffffffffffffffffffffffff19166020820180517bffffffffffffffffffffffffffffffffffffffffffffffffffffffff83818316178352505050506040516102999190610991565b6000604051808303816000865af19150503d80600081146102d6576040519150601f19603f3d011682016040523d82523d6000602084013e6102db565b606091505b5091509150818015610309575060008151148061030857508080602001905181019061030791906109e0565b5b5b610348576040517f08c379a000000000000000000000000000000000000000000000000000000000815260040161033f90610a6a565b60405180910390fd5b505050505050565b6000808473ffffffffffffffffffffffffffffffffffffffff1663095ea7b360e01b8585604051602401610385929190610a8a565b604051602081830303815290604052907bffffffffffffffffffffffffffffffffffffffffffffffffffffffff19166020820180517bffffffffffffffffffffffffffffffffffffffffffffffffffffffff83818316178352505050506040516103ef9190610991565b6000604051808303816000865af19150503d806000811461042c576040519150601f19603f3d011682016040523d82523d6000602084013e610431565b606091505b509150915081801561045f575060008151148061045e57508080602001905181019061045d91906109e0565b5b5b61049e576040517f08c379a000000000000000000000000000000000000000000000000000000000815260040161049590610aff565b60405180910390fd5b5050505050565b600080fd5b600073ffffffffffffffffffffffffffffffffffffffff82169050919050565b60006104d5826104aa565b9050919050565b6104e5816104ca565b81146104f057600080fd5b50565b600081359050610502816104dc565b92915050565b600062ffffff82169050919050565b61052081610508565b811461052b57600080fd5b50565b60008135905061053d81610517565b92915050565b6000819050919050565b61055681610543565b811461056157600080fd5b50565b6000813590506105738161054d565b92915050565b60008060008060008060c08789031215610596576105956104a5565b5b60006105a489828a016104f3565b96505060206105b589828a0161052e565b95505060406105c689828a016104f3565b94505060606105d789828a0161052e565b93505060806105e889828a016104f3565b92505060a06105f989828a01610564565b9150509295509295509295565b61060f81610543565b82525050565b600060208201905061062a6000830184610606565b92915050565b6000819050919050565b600061065561065061064b846104aa565b610630565b6104aa565b9050919050565b60006106678261063a565b9050919050565b60006106798261065c565b9050919050565b6106898161066e565b82525050565b60006020820190506106a46000830184610680565b92915050565b60008160601b9050919050565b60006106c2826106aa565b9050919050565b60006106d4826106b7565b9050919050565b6106ec6106e7826104ca565b6106c9565b82525050565b60008160e81b9050919050565b600061070a826106f2565b9050919050565b61072261071d82610508565b6106ff565b82525050565b600061073482886106db565b6014820191506107448287610711565b60038201915061075482866106db565b6014820191506107648285610711565b60038201915061077482846106db565b6014820191508190509695505050505050565b600081519050919050565b600082825260208201905092915050565b60005b838110156107c15780820151818401526020810190506107a6565b60008484015250505050565b6000601f19601f8301169050919050565b60006107e982610787565b6107f38185610792565b93506108038185602086016107a3565b61080c816107cd565b840191505092915050565b610820816104ca565b82525050565b61082f81610543565b82525050565b600060a083016000830151848203600086015261085282826107de565b91505060208301516108676020860182610817565b50604083015161087a6040860182610826565b50606083015161088d6060860182610826565b5060808301516108a06080860182610826565b508091505092915050565b600060208201905081810360008301526108c58184610835565b905092915050565b6000815190506108dc8161054d565b92915050565b6000602082840312156108f8576108f76104a5565b5b6000610906848285016108cd565b91505092915050565b610918816104ca565b82525050565b6000606082019050610933600083018661090f565b610940602083018561090f565b61094d6040830184610606565b949350505050565b600081905092915050565b600061096b82610787565b6109758185610955565b93506109858185602086016107a3565b80840191505092915050565b600061099d8284610960565b915081905092915050565b60008115159050919050565b6109bd816109a8565b81146109c857600080fd5b50565b6000815190506109da816109b4565b92915050565b6000602082840312156109f6576109f56104a5565b5b6000610a04848285016109cb565b91505092915050565b600082825260208201905092915050565b7f5354460000000000000000000000000000000000000000000000000000000000600082015250565b6000610a54600383610a0d565b9150610a5f82610a1e565b602082019050919050565b60006020820190508181036000830152610a8381610a47565b9050919050565b6000604082019050610a9f600083018561090f565b610aac6020830184610606565b9392505050565b7f5341000000000000000000000000000000000000000000000000000000000000600082015250565b6000610ae9600283610a0d565b9150610af482610ab3565b602082019050919050565b60006020820190508181036000830152610b1881610adc565b905091905056fea26469706673582212200e328ce3b863c1a87fc83db59ddee88f0be515350c2902f7e8c54770550c1aef64736f6c63430008110033",
  "linkReferences": {},
  "deployedLinkReferences": {}
}